:400000000080002011000000050A0000050A000008B5044B1A6803F53F5302331A6000F011FD00BFFA46004010B5054C237833B9044B13B10448AFF300800123237010BD4B
:40004000B082FF1F00000000A8260000084B10B51BB108490848AFF300800848036803B910BD074B002BFBD0BDE81040184700BF00000000B482FF1FA8260000C880FF1F94
:400080000000000008B5002001F07CF908BD00BF684620F007018D4619B572B6EFF311841E4B1B68DBB20F2B10D9103B23F0030202F1604202F564421168DB0003F01803E0
:4000C000E0229A400A4022FA03F306E00F2B03D1134B1B681B0E00E0002383F31188114A136801331360012B01D101F017FD62B6FFF7C8FF72B684F3118801F03DFB094AAF
:400100001368013B13601BB901F011FD01F0D5FC62B6BDE819408546704700BF04ED00E020ED00E07C83FF1F08B562B6032000F063FA00F04DFA00F06BFA0E4B18701B7889
:40014000DBB2012B03D10C4800F048FA02E00B4800F044FA45F6BF52094B1A60094A136843F002031360084800F038FA002001F0FFFBFBE76083FF1FAC260000D02600004E
:4001800014E000E010E000E0E026000008B500F0F7F900F00BFA01F04FFC0C4A136843F00503136001221146002000F06DFF042000F0F6FE022000F0F3FE032000F0F0FE46
:4001C000012000F0EDFE01F019FC08BD10E000E008B5054B1B780F2B02D100F013FAF8E70822024B1A70F4E70483FF1FFA46004008B5002001F074FB08BD00BF684620F05F
:4002000007018D4619B572B6EFF311841E4B1B68DBB20F2B10D9103B23F0030202F1604202F564421168DB0003F01803E0229A400A4022FA03F306E00F2B03D1134B1B68D6
:400240001B0E00E0002383F31188114A136801331360012B01D101F061FC62B6FFF7C8FF72B684F3118801F087FA094A1368013B13601BB901F05BFC01F01FFC62B6BDE899
:4002800019408546704700BF04ED00E020ED00E07C83FF1F38B51B4B1A785B78022B08D112F0FF0F02D14FF0FF3405E04FF0000402E0154800F092F9144B9A681C700021C6
:4002C0005960022159705569936873B13DB90CE0996855F8240001F0FBF8013400E000240A4B9B681A699442F2D3084B5B78022B03D1064883685B689847082000F094F9EE
:4003000038BD00BFD880FF1FF4260000F080FF1F70B58EB03222002101A801F098FD1C4B1A785B78022B07D152B2002A02DA4FF0000604E0560002E0164800F04FF9164BB1
:400340009A681E7000215960022159705569936873B13DB90CE0996855F8240001F0B8F8013400E000240C4B9B681A699442F2D3F2B20A4901A801F073FD094800F02EF93B
:4003800001A800F02BF9022000F04EF90EB070BDCC80FF1F18270000D880FF1F2C2700003027000030B585B01C4B5A6819785B78022B08D1312A02D88DF8041006E00023EF
:4003C0008DF8043002E0164800F008F99DF80410144B9A68197000215960022159705569936873B13DB90CE0996855F8240001F06FF8013400E000240A4B9B681A69944247
:40040000F2D3084B5B78022B03D1064883685B689847042000F008F905B030BDD880FF1F40270000E480FF1F70B582B02B4B9B681A68002A3BD0294A127802A800F8042D88
:400440001B6898470546D8B99DF80410234B9A6819700021596002215970566993683BB33EB925E0996856F8240001F031F8013400E00024194B9B681A699442F2D317E0F0
:40048000164B03225A709B68DE69DB6883B13EB90EE0D96856F8240001F01AF8013400E000240E4B9B689A699442F2D300E000255DB90B4C094B93F900200A49204601F041
:4004C000CFFC204600F08AF802E0074800F086F8012000F0A9F802B070BD00BFCC80FF1FCC82FF1F2C2700006427000000B583B000230193012001F06BF801A9032000F0E5
:40050000C7FF019800F096FF019A0121014800F0ABF8EFE78C27000010B582B000230193062001F055F801A9022000F0B1FF019800F080FF019B13F0040F0DD0094C2268C1
:400540000221094800F078F823680133236013F5807F01D900222260019A0121034800F083F8DDE70083FF1F98270000A827000008B5012000F0B6F801F040FA08BD00BF4F
:4005800008B500F0CDFC00F0D9FC002008BD00BF10B50446002000F0D9FC20B100F0E8FC2070002010BD4FF0FF3010BD08B500F0E1FB002000F094FB08BD00BF08B5034B54
:4005C00013F8100000F08CFB08BD00BFB427000008B500F037FB002008BD00BF08B500F04BFB044800F048FBC82000F087FA002008BD00BFB429000008B5002100F09EFAD5
:40060000002008BD08B500F0B9FA002008BD00BF044B1B7803F0080303F0FF0003B10120704700BFBC760040024A137818431070002070470483FF1FF8B506460F4615466B
:4006400000240DE006EBC4039A88B5FBF2F302FB13531BB956F83430002098470134A4B2BC42EFD3F8BD00BFF8B505460E461746002409E005EBC4035868384202D055F88D
:40068000343098470134A4B2B442F3D3F8BD00BF10B582B0044602A8002300F8013DFFF777FF58B99DF9072002F10B03DBB2162B02D80023237004E0227002E00248FFF7C7
:4006C0008DFF002002B010BDB829000008B5007800F05EFB002008BD08B50078FFF76EFF002008BD104B5B68034413F1011F01D80D4A53600C4B1B69034413F1011F01D883
:40070000094A1361084BDB69034413F1011F01D8054AD361044B9B6A184410F1011F01D8014B9862704700BFCC80FF1FFEE700BFF0B40022174611E050F82760F3B226F082
:40074000FF0608E001EB420511F812406D78A5550132013BDBB2002BF4D10137142FEBD9F0BC704708B50A46002101F070FB08BDF8B5174B1B78DBB2164E3478E4B2164F08
:400780003D78EDB203F00701144A11701B090132137044F00303337045F003033B704FF481720F4B1A8040230E4A137002321370102302F21D221370033213700A2000F094
:4007C000B3F93D7034704422074B1A70F8BD00BFCF010049F8460040F94600406E5800400C510040015900407658004008B501F023FB08BD38B513222E4B1A8018232E4A6C
:4008000013701925023215800232137004222B492B48FFF7EBFF02222A4B1A7008224FF040231A70032103F500731970264B1B78DBB226490B70264B1A8041F25122023B90
:400840001A8000240CE0234B1B7803F0010343EA440404F003044FF4F07001F011F9013D0DB1032CEFD115B90320FFF75FFF1A4B4FF480721A8007221A70002217490A70B5
:400880004820023108701A700222033B1A7004220A331A70124A137843F003031370013A137843F001031370013A137843F08003137038BD80400040824000401804004845
:4008C000004100400043004008010049A146004022420040254200400440004006400040A243004038B572B6354A137843F00403137000240CE0334D630019194A0011465F
:400900002A44084691882858FFF72CFF0134E4B2072CF0D900240BE02A49A3001819420088188022416B006BFFF760FF0134E4B2002CF1D024494FF09040FFF7F9FE234AA6
:40094000137843F0020313701032137843F0020313701F4C237843F040032370A2F58632513A137843F010031370082219491A48FFF73CFF0A2219491948FFF737FF082208
:4009800018491948FFF732FF082218491848FFF72DFF184A137843F008031370164D61232B70FFF727FF81232B700122134B1A70FFF7DEFE0E2221461148FFF717FF38BDE8
:4009C000E8460040842A00005400004803500140A0430040F403004802510040FC030048C0510040080400481251004010040048225100402243004000480040040008409F
:400A0000B043004008B501F0EBF903680C2B00D1FEE7FEE708B5094B1A681044084BC31A802B02DC054B186005E001F0D9F90C2303604FF0FF32104608BD00BFFC80FF1F2E
:400A4000988DFF1F08B5104E104D16E029686B68AC68002204E051F8040B43F8040B0432A242F8D1E868002203E0002143F8041B04328242F9D11035013E002EE6D101F0D4
:400A8000B5F9FFF751FBFEE701000000702D000008B5104A104B1A60104A136843F40073136000230AE0032B03D80D4A52F8231000E00C490C4A42F8231001332F2BF2D9AA
:400AC0000A4B1A780A4B1A70074A0A4B1A60FFF709FF08BD0004FA050CED00E014ED00E000000000050A00000080FF1FBC760040C080FF1F08ED00E001BE704710B50446B9
:400B000005E0084B186800F0BBFFA4F50044B4F5004FF6D8034B586800FB04F000F0B0FF10BD00BF0081FF1F08B5034B1B7A00FB03F000F0A5FF08BD0081FF1F0E4B1A7878
:400B400002F0FC0200F00300104318701A7842F080021A701A7802F07F021A7049011A7801F0600102F09F02114319701A7842F010021A70704700BF834300400122014B6F
:400B80001A7070478443004070B504460E46074B1D681F2802D90020FFF7AEFF04F01F04103455F8240045F8246070BD08ED00E038B504460D46072902D90020FFF79CFF99
:400BC0001F2C02D90020FFF797FF04F01F0000F1604000F564406D01EDB2057038BD00BF7222084B1A702022A3F580731A700622A1331A70472210331A70002251331A70FC
:400C0000704700BF8965004010B500F041FF04460B4A137843F020031370A2F58072137843F01003137002F58172137843F01003137000F033F8204600F02EFF10BD00BFD3
:400C40009965004008B5054B1B7823B9FFF7C8FF0122024B1A70FFF7D7FF08BD0583FF1F034B1B7813F0040FFAD1024B187070476B6500404B65004038B5074B1B782BB9C8
:400C800038BDFFF7EDFF0134A4B201E005460024285D0028F5D138BD0583FF1F054A137843F0020313701032137843F002031370704700BFA2430040024A137843F080032F
:400CC0001370704778640040014B1870704700BF08640040014B1870704700BF48640040014B1870704700BF28640040014B1870704700BF88640040014B1878704700BF94
:400D000068640040014B1878704700BF5864004008B501E0FFF7F6FFFFF7EEFF10F0100FF8D108BD10B5114A137803F0C00343F0090313700E4C237843F001032370FF203F
:400D4000FFF7C2FFFF20FFF7C5FF0020FFF7C8FF0020FFF7CBFF00F09BFE237843F01003237000F099FEFFF7D3FF10BD786400409864004008B5054B1B7823B9FFF7D2FF72
:400D80000122024B1A70FFF797FF08BD0783FF1F044A137803F0BF03800100F040001843107070470051004008B50A2813D00C2802D0082809D104E04FF400624FF480515F
:400DC0000DE080224FF4807109E00020FFF794FE0022114603E04FF400724FF480610020094B188042F2107303FB01F303F6C413064981FB0301DB17C3EBE12304490B60BA
:400E000012B2044B1A8008BD6483FF1FAD8BDB686883FF1F6683FF1F10B500F039FE04461E4A137843F0010313701032137843F0010313701A3A137843F00103137010326B
:400E4000137843F00103137002F5AA521232137843F0030313701822114B1A70013B1A7842F040021A701A7802F0FC021A70C822053B1A700222A3F597530C3B1A70094A39
:400E8000137843F0080313700A20FFF74DFE0122054B1A60204600F0FFFD10BDAB43004006590040275B004080E200E010B504460A280DD00C2802D0082804D101E0C222B0
:400EC00007E0422205E00020FFF716FEC22200E08222034B1A702046FFF766FF10BD00BF0259004008B5102000F050F807210020FFF75EFE07490020FFF746FE064A13782C
:400F000043F0060313700820FFF7D0FF0022034B1A8008BD890F0000015900406C83FF1F08B5054B1B7823B9FFF7DCFF0122024B1A70FFF771FF08BD0883FF1F024A137805
:400F400043F00103137070470059004010B5074B1B7813F0010401D10028F8D024B10120FFF7E2FD014B1B78204610BD01590040034B1B78034A108800B2181A40B2704729
:400F8000A05B00406683FF1F704700BF034B1A7800F0F80010431870704700BF0241004038B5EFF3108572B604284ED82D4B53F82030002B4BD02B4A013B42F820302A4BF6
:400FC00053F82030032B07D10222274B43F820200022264B43F8202000F03EFC244B1B68002B36D1234B1C6800F014FCB0F1FF3F31D0214B53F82020204B1B689A422CD94B
:40100000B4F1FF3F03D00221174A42F824101C4A52F820201343194A13600022124B43F8202000F0B3FB174B53F820304BB10024144B43F8204040F0004000F081FD2046F9
:401040000CE000F07DFD002008E0032006E0042004E0002002E0002000E0002085F3108838BD00BF5881FF1F0482FF1F3483FF1F7C83FF1FEC81FF1F482C00005083FF1F9E
:40108000282C00000C83FF1FF8B5EFF3108472B628BB00EB4005AB00184DEB5803EB4306B500174E75598D421BD34AB103EB43039E00134B1E44B3689A4214D3954214D379
:4010C000A9B103010F4DEB589BB90301EE180127EF507260013900F087F800200AE0032008E0082006E0082004E0082002E0082000E0072084F31088F8BD00BFE02B0000BD
:40110000F42B00009487FF1F18B108B5C368984708BD704708B508B1406800E00020042816D80C4B53F8203093B10A4A013B42F82030094B53F82030032B07D10222064B59
:4011400043F820200022054B43F8202000F084FB08BD00BF5881FF1F0482FF1F3483FF1F18B1034640689B6801E00023184604281DD80F4A52F82020CAB10E4A52F8201034
:40118000032914D010B50C4C54F820201A4344F820200A4A52F82020134207D0012905D10222044B43F8202000F056FB10BD7047002C00000482FF1F3483FF1F2083FF1F7A
:4011C00080B108B50378012B06D013B1032B06D008BDFFF79FFF08BDFFF7C2FF08BDFFF793FF08BD704700BF30B400EB40029300214AD258214B03EBC2035C68B4F1FF3F60
:4012000004D11E4B03EBC20250602DE01C4B03EB04139B6899420AD2184D05EBC2025060174A02EB04125B1A93601DE01C46144B03EB04139A68891ADB68B3F1FF3F05D0E4
:401240000F4A02EB031292689142EFD2B3F1FF3F05D00B4A02EB031295686D1A9560084A02EB0414E0601C46054B03EB00108160C46030BC704700BFE02B00001481FF1F92
:401280009487FF1F38B5394A02EBC0035C6852F83030013342F8303000EB40018A0034498A58934203D90022304B43F83020B4F1FF3F59D02F4B03EB04139B68002B4ED1D3
:4012C000214600E019462B4B03EB0113DB68B3F1FF3F05D0274A02EB03129268002AF1D0244A02EB01114FF0FF32CA601F4A02EBC0004360B3F1FF3F07D01E4A02EB03139A
:401300009A68013A9A6000E02C4604EB44029300194A13441B7A7BB904EB44029300164A13445A68154B53F8223003EB83039A0013481044FFF744FF0E4B03EB0413DD6802
:40134000596821B101392046FFF74EFF03E024010022084B1A51B5F1FF3FD5D138BD054A02EB0414013BA36038BD00BF1481FF1FF42B00009487FF1FE02B0000F02B000018
:40138000CC2B000038B5EFF3108572B6002838D1FFF778FF204B1B68002B34D11F4B1C6800F038FAB0F1FF3F2FD01D4B53F820201C4B1B689A422AD9B4F1FF3F03D002216B
:4013C000194A42F82410194A52F820201343154A13600022144B43F8202000F0D7F9144B53F820304BB10024114B43F8204040F0004000F0A5FB20460AE000F0A1FB00203E
:4014000006E0032004E0002002E0002000E0002085F3108838BD00BF7C83FF1FEC81FF1F482C00005083FF1F0482FF1F282C00000C83FF1FEFF3108372B6114A1168114A5B
:40144000126882B9B1F1FF3F0FD00F4A52F821206AB110B40D4C54F8212022EA000044F82100002007E0022002E0022000E0012083F31088704783F3108810BC704700BFA3
:40148000EC81FF1F7C83FF1F002C00003483FF1F04280FD80B4B53F820306BB10A4B53F82030032B0AD059B1084B53F820300B6000207047032070470120704707207047A1
:4014C0000E207047002C00000482FF1F3483FF1F38B5EFF3108472B6042853D8324B53F82030002B50D0314B53F82030032B4DD02F4D55F820200A4345F820202D4A52F827
:401500002020114244D0012B44D10222274B43F8202000F0A1F9284B1B68002B3CD1274B1D6800F077F9B0F1FF3F37D0244B53F82020244B1B689A4232D9B5F1FF3F03D033
:4015400002211A4A42F825101F4A52F8202013431C4A13600022154B43F8202000F016F91A4B53F820304BB10025184B43F8205040F0004000F0E4FA284612E000F0E0FAC0
:4015800000200EE003200CE001200AE0072008E0002006E0002004E0002002E0002000E0002084F3108838BD002C00000482FF1F3483FF1F2083FF1F7C83FF1FEC81FF1FB6
:4015C000482C00005083FF1F282C00000C83FF1F38B5EFF3108472B6364B1D68364B1B68002B5DD1B5F1FF3F5CD0344B53F82530002B59D0324B53F82530034256D1314B0F
:4016000043F825000122304B43F825202F4B53F825002F490B6823EA00030B602D4B43F825202D4B53F82520224B1A6000F0F2F8B0F1FF3F06D0294B53F82020244B1B6875
:401640009A420DD81B4B1868B0F1FF3F03D000221D4B43F8202040F0004000F071FA1AE00021194A42F82010184A52F820201343174A136000F08AF8164B53F8203043B1E1
:401680000022144B43F8202040F0004000F058FA01E000F055FA00200A4B43F8250006E0022004E0022002E0012000E0002084F3108838BDEC81FF1F7C83FF1F002C00009E
:4016C0003483FF1F2083FF1F0482FF1F282C00005083FF1F0C83FF1FF081FF1F482C000008B500F053F8084B53F8203043B10022054B43F8202040F00040044B186008BDF8
:40170000024B186008BD00BF0C83FF1F8083FF1F10B500F07FF8124B1B68B0F1FF3F1AD0104A52F82010104A1268914213D9B3F1FF3F03D002240D4941F8234000210B4B12
:4017400043F820100A4B53F820301A43064B1A60FFF7C6FF10BD43F00043064A136010BDEC81FF1F482C00005083FF1F0482FF1F282C00008083FF1F034B1B6813B1002298
:40178000014B1A60704700BF7083FF1FF0B4184B19880B0A174AD356B3F1FF3F01D1535601E008335BB2144D55F82320134850F82200134E56F8224045F82340114D2F68B3
:4017C00046F822702A60B4F1FF3F09D10E4A42F82340012202FA03F321EA0301044B19800A4B19680A4A42F820101860F0BC70474C83FF1FC02A0000AC81FF1F6C87FF1F2F
:401800003081FF1F4883FF1F6C81FF1FEC81FF1FF081FF1F0C4B1A88130A0C49CB56B3F1FF3F01D18B5601E008335BB2B3F1FF3F06D0074A52F82320064B53F82200704776
:401840004FF0FF30704700BF4C83FF1FC02A0000AC81FF1F6C87FF1F30B4144B53F82020134C2368134951F823502560124C44F823004FF0FF3441F82340104951F822105D
:40188000A1420AD10E4951F820400E480188214301800D4941F8223002E0064840F82130064941F8223030BC704700BF4481FF1F4883FF1F3081FF1F6C87FF1F6C81FF1F19
:4018C000482C00004C83FF1FAC81FF1F0022014B1A60FEE77883FF1F08B5FFF7F7FF00BF08B572B6FFF7F8FF10B150F8210070474FF0FF30704700BF0122014B1A60FEE789
:401900007883FF1F70B50546124B53F8306000241CE0104B03EBC50321465868FFF7E4FF0D4A52F82030013B42F820300B4B53F82030032B07D10222084B43F820200022F3
:40194000074B43F82020FFF787FF0134B442E0D370BD00BFC02B00005881FF1F0482FF1F3483FF1F18B908B5FFF7CCFF08BD7047194B1A4ADA621A4A9A631A4ADA63EFF346
:40198000108272B6184B1B6813BB10B5044600F053F8164B1C600122134B1A602046FFF7E1FFFFF737FFB0F1FF3F0ED0104B53F82030104A11680B43136000220E4B43F832
:4019C0002020FFF7E3FE00F0BBF862B6FFF794FF82F31088072070470080FF1F011B0000C51A0000910000007883FF1FA487FF1F282C00005083FF1F0482FF1F08B5EFF38D
:401A0000108272B6094B1968094B1B6833B94FF0FF30084B43F82100002000E0022010B9084600F0E6F882F3108808BDEC81FF1F7C83FF1F1C81FF1F38B50D4B1D68EFF34F
:401A4000108472B600F02CF80A4A136843F07F431360094B6B6403210120FFF7A9F8074A136843F00203136084F3108838BD00BF08ED00E020ED00E0FD01000000E100E0A5
:401A80000230800803D000BF01380046FCD17047EFF3108072B6704780F31088704700BF18484FF47F0102680A43026016486FF07F4102680A400260704714484FF0805113
:401AC0000160704772B611484FF000610160FFF71FFE0F48006800F0C3F858B10C4800684FF080730B4A0C490FB40FB46FF00600004700BF6FF0060062B6004762B600DF82
:401B000008B0704720ED00E01CED00E004ED00E08083FF1F411B0000FD1A0000EFF30880054908600548006880F3088870470248006880F3088870474882FF1F3882FF1F40
:401B4000411C8900154A11440968154A136899421AD0F0B444464D4656465F46F0B400B5104C9B002344EFF308851D60116089002144096881F3088802BC8E46F0BCA0461E
:401B8000A946B246BB46F0BC002806DB00B500F05BF802BC8E46FFF7D3BF7047842C00005483FF1F3C82FF1FF0B444464D4656465F46F0B400B5EFF3038308B480001749DF
:401BC00001440968164A0244EFF30883136088471448804704BC4FF08070024382F3038801BC8646F0BCA046A946B246BB46F0BC704780000A4901440A6882F3088804BCCE
:401C00004FF08070024382F3038808BC9E46F0BCA046A946B246BB46F0BC70475C2C00008087FF1F291C000008B572B6014B1868FFF7DFFFEC81FF1F08B5024B1868FFF729
:401C4000B3FF08BDEC81FF1F08B562B6FFF7F4FF72B600F041F8014B186808BD8083FF1F00280BDA20F000400130054B53F82000044B1B68181A18BF0120704701207047CD
:401C8000842C00005483FF1F054B53F82020054B53F820309A4201D101207047002070475881FF1F142C000008B5FFF76FFD084B53F8203043B10022054B43F8202040F007
:401CC0000040044B186008BD024B186008BD00BF0C83FF1F8083FF1F38B5364B1C680022354B1A60354A52F82430013342F82430334B53F824502046FFF7C6FF012801D0BC
:401D0000A54204D103222F4B43F8242003E002222C4B43F824202C4B53F824102B4A136823EA010313602A4B53F82440214B1C60B5F1FF3F0FD0234B53F82530032B07D17F
:401D40000222204B43F825200022224B43F825202846FFF781FDFFF75DFDB0F1FF3F0BD1B4F1FF3F03D00022164B43F8242044F00044194B1C6038BD184B53F82020134B07
:401D80001B689A4208D800220E4B43F8242044F00044114B1C6038BD00210A4A42F82010094A52F820201343084A1360FFF77CFF38BD00BFEC81FF1F7083FF1F5881FF1F16
:401DC0001C81FF1F0482FF1F282C00005083FF1FF081FF1F3483FF1F8083FF1F482C0000014B1868704700BFAC82FF1F0E4B70B51E460E4C0025E41AA410A54204D056F89C
:401E0000253098470135F8E700F0A0FF084B094C1E46E41AA4100025A54204D056F8253098470135F8E770BD582D0000582D0000582D0000602D000010B5431E0A44914205
:401E400004D011F8014B03F8014FF8E710BD03460244934202D003F8011BFAE7704700000EB400B54FF402719CB0ADF814106FF00041049107914FF6FF711DAB02900690A9
:401E8000084853F8042BADF81610006802A9019300F064F8029B00221A701CB05DF804EB03B07047AC82FF1F2DE9F0478E6882469E420C46914698463ED88A8912F4906F6B
:401EC0003AD02568096902236F1A656905EB450595FBF3F57B1C43449D4238BF1D4653050FD5294600F040FB064698B13A462169FFF7A2FFA38923F4906343F08003A38138
:401F000013E02A4600F08EFB064670B92169504600F0DEFA0C23CAF80030A3894FF0FF3043F04003A381BDE8F08726613E44266046466561ED1BA560464528BF464649467C
:401F40003246206800F0A8FAA36800209B1BA36023681E442660BDE8F08700002DE9F04F9DB003938B8980461C060D4616460DD50B695BB9402100F0F7FA2860286118B9EB
:401F80000C23C8F80030CDE040236B610023099320238DF82930DFF89CB130238DF82A3037463C4614F8013B1BB9B7EB060910D003E0252BF9D02746F3E74B463246294689
:401FC0004046FFF771FF013000F0A780099B4B4409933B78002B00F0A08000234FF0FF3204930793059206938DF853301A930126052221784E4800F041FA671C049B38B194
:402000004B4A3C46801A06FA00F018430490EFE7D90644BF20228DF853201A0744BF2B228DF8532022782A2A03D0079A00210A200BE0039A111D12680391002A10DA52429C
:4020400043F00200079204900BE027463B780134303B092B03D800FB02320121F5E701B107923B782E2B1ED17B782A2B0AD1039B02371A1D1B680392002BB8BF4FF0FF3375
:40208000059310E0002319460593781C0A2407463A780130303A092A03D804FB01210123F5E703B1059103223978224800F0E6F940B14023CBEB000003FA00F0049B0137CC
:4020C00018430490397806221B487E1C8DF8281000F0D4F988B1194B33B9039B073323F007030833039314E003AB00932A46144B04A94046AFF3008007E003AB00932A4661
:402100000F4B04A9404600F093F8B0F1FF3F824603D0099B5344099342E7AB895B0601D4099801E04FF0FF301DB0BDE8F08F00BF162D00001C2D0000202D0000000000003A
:40214000A91E00002DE9F04791461F460A698B6806469342B8BF1346C9F8003091F843200C46DDF8208012B10133C9F800302368990642BFD9F800300233C9F8003025684D
:4021800015F0060510D104F1190A07E00123524639463046C04701301AD00135E368D9F800209B1A9D42F1DB94F843302268003318BF012392060FD5E118302081F8430052
:4021C0005A1C94F845102244023382F8431003E04FF0FF30BDE8F08704F1430239463046C0470130F4D02268D9F80050E36802F00602042A08BF5D1B2269A3680CBF25EABB
:40220000E57500259342C4BF9B1AED184FF000091A344D4509D00123224639463046C0470130D5D009F10109F3E70020BDE8F0872DE9F04317460A7E85B06E2A984606466F
:402240000C460C9B01F1430E00F0AE8011D8632A22D009D8002A00F0BB80582A40F0CA8081F84520834955E0642A1ED0692A1CD0C0E0732A00F0B08009D86F2A2ED0702A21
:4022800040F0B8800A6842F020020A603EE0752A24D0782A3AD0ADE01A6801F14205111D1960136884F84230A8E021681A6811F0800F02D0111D196008E011F0400F02F10A
:4022C0000401196002D0B2F9003000E01368002B3CDA2D225B4284F8432037E021681A6811F0800F02D0111D196007E011F0400F02F10401196001D0138800E01368227E12
:402300005C496F2A14BF0A2208221BE078225A4984F845202268186812F0800F00F104051D6003D1550601D5038800E00368D00744BF42F0200222601BB9226822F02002EE
:4023400022601022002084F8430001E049490A226568002DA56008DB206820F0040020602BB9002D7DD175460CE0002B79D07546B3FBF2F002FB1033CB5C05F8013D03467D
:402380000028F5D1082A0BD12368DA0708D5236962689A42DEBF302305F8013C05F1FF35C5EB0E0323612EE008681A6810F0800F496903D0101D1860136808E010F0400FA2
:4023C00002F104001860136801D0198000E0196000232361754616E01A68111D1960156800216268284600F049F808B1401B6060636804E004F1420584F842200123236163
:40240000002384F84330CDF800803B4603AA21463046FFF797FE013002D14FF0FF3026E023692A4639463046C0470130F5D023689B0710D5002504F1190907E001234A4660
:4024400039463046C0470130E7D00135E368039A9B1A9D42F2DBE068039B9842B8BF184605E00B7804F1420584F842308AE705B0BDE8F083272D0000382D000010B5C9B29B
:4024800002449042034605D01C7801308C42F8D1184610BD002010BD884210B501EB020301D8421E0BE09842FBD28118D21AD34204D013F8014D01F8014DF8E710BD994292
:4024C00004D011F8014B02F8014FF8E710BD000038B50546002944D051F8043C0C1F002BB8BFE41800F0D4F81E4A1368114613B96360146030E0A3420DD92268A01883421B
:4025000001BF18685B681218226063600C6023E0A24203D813465A68002AF9D118681918A1420BD12168014458188242196013D110685268014419605A600DE002D90C237C
:402540002B6009E021686018824201BF106852680918216062605C602846BDE8384000F098B838BD5C83FF1F70B5CD1C25F0030508350C2D38BF0C25002D064601DBA9424A
:4025800002D90C23336046E000F082F8234B1C681A462146A1B10B685B1B0ED40B2B03D90B60CC18CD501EE08C420BBF63684B681360636018BF0C4615E00C464968E9E75F
:4025C000174C23681BB9304600F052F820602946304600F04DF8431C18D0C41C24F00304A0420DD12560304600F053F804F10B00231D20F00700C31A0ED05A42E25070BD8A
:40260000211A304600F034F80130EBD10C233360304600F03EF8002070BD00BF5C83FF1F5883FF1FF8B5074615460E4621B91146BDE8F840FFF798BF1AB9FFF749FF2846FD
:40264000F8BD00F027F885420ED929463846FFF78BFF044650B131462A46FFF7EDFB31463846FFF735FF01E03046F8BD2046F8BD38B5064C0023054608462360FEF7CAF9EF
:40268000431C02D1236803B12B6038BD908DFF1F7047704751F8040C0028BEBF091851F8043CC018043870470000000053797374656D207265736574206F63637572656440
:4026C000206279205761746368646F6700000000506F776572204F4E2052657365740000496E206D61696E2066756E6374696F6E00000000496E76616C696420737065650B
:4027000064207369676E616C20726563656976656428424C29000000496E76616C696420414443207369676E616C00002564000053706565642076616C75657300000000DA
:40274000496E76616C6964207370656564207369676E616C20726563656976656428454E47290000436F756C64206E6F74206665746368206A6F79737469636B20646174B6
:40278000612066726F6D20706F727400110300000100000001000000290400000A000000A50300006400000095020000020000000100020000000100010001000100010005
:4027C000010001000100020002000200020002000200020002000200020002000200030003000300030003000300030004000400040004000400040005000500050005007D
:4028000005000600060006000600070007000700080008000800090009000A000A000A000B000B000C000C000D000D000E000F000F0010001100110012001300140015002A
:4028400016001700180019001A001B001C001D001F0020002100230024002600280029002B002D002F0031003400360038003B003D0040004300460049004C004F0053009C
:4028800057005B005F00630067006C00700075007B00800086008C00920098009F00A600AD00B500BD00C500CE00D700E100EB00F50000010B011701240130013E014C011F
:4028C0005B016A017A018B019C01AF01C201D601EA01000217022E02470261027C029802B502D402F402160339035D038303AB03D50300042D045D048E04C204F8043005C6
:402900006B05A805E8052B067106BA0606075607A90700085B08B9081C098309EF09600AD50A500BD10B560CE20C740D0D0EAC0E520F0010B510731138120713DF13C0142C
:40294000AB15A116A117AD18C419E91A1A1C581DA51E00206B21E52271240E26BD278029562B412D422F5A318933D1353338B03A493D0040D542CB45E2481C4C7A4FFF5271
:40298000AC56825A845EB3621267A26B66706075927A0080AA85958BC3913798F59EFEA558AD04B508BD66C524CE44D7CCE0C0EAFFFF25F50D0A0000556E61626C652074B2
:4029C0006F20676574204144432076616C75652066726F6D204472697665720000000000CD06000000000000000000000000000000000000000000000000000000000000B0
:402A00000000000000000000D906000000000000000000000000000000000000000000000000000000000000000000000000000000000000020000000000000001000000B4
:402A4000542A000000000000000000000000000000000000020000009106000000000000010000000000000001000000802A00000000000000000000000000000000000093
:402A800003000000305100404000F0510040100000000140001000140140800400190140000300400140000A004C0140000200500140200080180140740300488000000017
:402AC000FF000101020202020303030303030303040404040404040404040404040404040505050505050505050505050505050505050505050505050505050505050505D5
:402B00000606060606060606060606060606060606060606060606060606060606060606060606060606060606060606060606060606060606060606060606060606060615
:402B40000707070707070707070707070707070707070707070707070707070707070707070707070707070707070707070707070707070707070707070707070707070795
:402B80000707070707070707070707070707070707070707070707070707070707070707070707070707070707070707070707070707070707070707070707070707070755
:402BC00001000000C82B00000000000001000000020000000400000000000000FFFFFFFF0000000000000000000000000000000000000000102700000100000000000000A6
:402C000000000000000000000100000001000000000000000100000001000000010000000100000001000000800000000100000004000000080000001000000001000000EF
:402C4000020000000400000001000000010000000400000008000000100000008D010000D101000019050000ED04000071050000391C0000391C0000391C0000391C0000F7
:402C8000391C0000000000000000000000000000010000000200000000000000616C726D5F316D730000000065765F6A6F79737469636B5F6F6E44617461000065765F7393
:402CC000706565645F6F6E446174610065765F7469636B5F316D730074736B5F696E69740000000074736B5F6261636B67726F756E64000074736B5F696F000074736B5FBB
:402D0000636F6E74726F6C0074736B5F73797374656D00004300232D302B2000686C4C006566674546470030313233343536373839414243444546003031323334353637CC
:402D4000383961626364656600000000F8B500BFF8BC08BC9E4670474D000000910A0000F8B500BFF8BC08BC9E46704729000000802D0000C880FF1FE8010000E80A000090
:402D8000000000000000000000000000582A000000000000000000002C2A00000000000000000000042A00000000000000000000DC290000988DFF1F0000E02EC05D00009A
:402DC0001800000000366E019C2C000000000000FFFFFFFFFFFFFFFFFFFFFFFFFFFFFFFFFFFFFFFFFFFFFFFF01000000020000000300000004000000FFFFFFFF0000000060
:402E0000000000000200000003000000040000000100000001000000010000000100000001000000FFFFFFFFFFFFFFFFFFFFFFFFFFFFFFFFFFFFFFFFFFFFFFFFFFFFFFFFA0
:402E4000FFFFFFFFFFFFFFFFFFFFFFFFFFFFFFFFFFFFFFFFFFFFFFFFFFFFFFFFFFFFFFFFFFFFFFFFFFFFFFFFFFFFFFFFFFFFFFFFFFFFFFFFFFFFFFFFFFFFFFFFFFFFFFFF92
:402E8000FFFFFFFFFFFFFFFFFFFFFFFFFFFFFFFFFFFFFFFFFFFFFFFFFFFFFFFFFFFFFFFFFFFFFFFFFFFFFFFFFFFFFFFFFFFFFFFFFFFFFFFFFFFFFFFFFFFFFFFF030000004B
:402EC00003000000030000000300000003000000A82C0000BC2C0000CC2C0000D82C0000E42C0000F42C0000FC2C0000082D0000908DFF1F000000004487FF1F688BFF1F4C
:402F0000000000000000000000000000000000000000000000000000000000000000000000000000142D000000000000000000000000000000000000000000000000000050
:402F40000000000000000000000000000000000000000000000000000000000000000000000000004C82FF1F00000000000000000000000000000000000000000000000065
:402F80000000000000000000000000000000000000000000000000000000000000000000000000000000000000000000000000000000000000000000000000000000000011
:402FC00000000000000000000000000000000000000000000000000000000000000000000000000000000000000000000000000000000000000000000000000000000000D1
:403000000000000000000000000000000000000000000000000000000000000000000000000000000000000000000000000000000000000000000000000000000000000090
:403040000000000000000000000000000000000000000000000000000000000000000000000000000000000000000000000000000000000000000000000000000000000050
:020000040003F7
:0200000480007A
:4000000003520040026400400265004001070140490801402E090140020B0140121801403A190140601A0140461B0140034001400441014001420140024301400245014045
:400040000446014001470140074D01400450014001510140111061806440880D893889728B0FEE0403010B0E15081A011B022A01310833013401350437023A803E10402013
:40008000410345D24610480B49FF4AFF4BFF4DA04F04501852805405580459045A045B045C015F01604062C06440654066C068C06AC06CC06EC08110851C860187628A0151
:4000C0008D1C8F61951899679B189D7FA104A202A508A602AB23AF04B001B138B31FB402B740B980BB0ABE11D418D804D904DB04DC10DD10DF01002003200C100F04129095
:40010000172019101B011D801E0920C0210C228027A529802A082B84318432103724384039083A023C023F20441047204F0557105A025E085F816110630274019F01C006CD
:40014000C240C44CCA0FCC6ECEABD060D6D1D80CEE048701E002050D0730090C0B10150D17101B202102231429282B11333C350339203B0859045C105F010094014008821B
:4001800009080A05100211141301181019111B242005221124082504261028A22B042C84325033083618382039483A023D083E20409548104910521059016802691470104B
:4001C0007104720E73018C028D049108920196229D849E1AA040A108A410A7A4C007C20FC40FCAAFCC6ECE6FD00FD204D6010021029204080716081009080A600B15104268
:400200001211140C15081713180C1B021F0922042473287329162B09300332703307340C351B368038203B283E104002450449FF4A074BFF4C404D204EF04F0550085804F5
:4002400059045A045C115D015F01604061A86240632084018520871889208D289401951897229D019E019F06A512A601A720A938AA01AB04AC02B001B301B402B73EBE11D9
:40028000BF04C034C102C6CBC7E0C82CC9FFCAFFCBFFCEF0CF44D00CD401D804D904DA04DB04DC10DD11DF01E6C0EA40EB0200080388072009040A980C800E101080111406
:4002C000140615201621180419801A801B081E8820082110220C23202508268028042C042E0830A03204368838083A183C203D083F80400445044650472048305080524017
:40030000562157405C025D205E8865206620850888208B809008911496809C249D809E20A104A480A608A788C02EC2AEC4EECA64CC5ECE76D0E4D6F0E00233203580CC3003
:4003400005809D80A720C080A720AB20EE206202D8021B048602A602C608AB041040710285028840C408DC01E20100030C0310021C02000F0080000003C00C330040020077
:400380000DF002030C0000000F330004043300C00F22000808F30000101100081000003310C00000010310000EF0000C000000200000014023040600010CE00009FFFFFFE3
:4003C00062A0F0410C0000000000021304040404111100010000000000004002001030100010101200000000000000000000000000000000084040000000030080004080E7
:400400008000800000000000000B0B00000000000010100010000000130018010000000000000000000000000000000000000000000000000000000000000000000000004A
:40044000000000000000000000000000000000000000000000000000000000000000000000000000000000000000000000000000000000000000000000000000000000007C
:40048000000000000000000000000000000000000000000000000000000000000000000000000000000000000000000000000000000000000000000000000000000000003C
:4004C00000000000000000000000000000000000000000000000000000000000000000000000000000000000000000000000000000000000000000000000000000000000FC
:4005000000000000000000000000000000000000000000000000000000000000000000000000000000000000000000000000000000000000000000000000000000000000BB
:0200000490006A
:0400000000004005B7
:0200000490105A
:04000000BC90ACAF55
:0200000490303A
:02000000703955
:0200000490402A
:4000000000000000000000000000000000000000000000000000000000000000000000000000000000000000000000000000000000000000000000000000000000000000C0
:400040000000000000000000000000000000000000000000000000000000000000000000000000000000000000000000000000000000000000000000000000000000000080
:400080000000000000000000000000000000000000000000000000000000000000000000000000000000000000000000000000000000000000000000000000000000000040
:4000C0000000000000000000000000000000000000000000000000000000000000000000000000000000000000000000000000000000000000000000000000000000000000
:0200000490501A
:0C00000000012E16106900012E2780A2BE
:00000001FF