:400000000080002011000000310600003106000008B5044B1A6803F53F5302331A6000F027FB00BFFA46004010B5054C237833B9044B13B10448AFF300800123237010BDE7
:400040009082FF1F0000000040210000084B10B51BB108490848AFF300800848036803B910BD074B002BFBD0BDE81040184700BF000000009482FF1F40210000C880FF1FAE
:400080000000000008B5002000F03EFD08BD00BF684620F007018D4619B572B6EFF311841E4B1B68DBB20F2B10D9103B23F0030202F1604202F564421168DB0003F018031B
:4000C000E0229A400A4022FA03F306E00F2B03D1134B1B681B0E00E0002383F31188114A136801331360012B01D101F051FA62B6FFF7C8FF72B684F3118800F0FFFE094AB4
:400100001368013B13601BB901F04BFA01F00FFA62B6BDE819408546704700BF04ED00E020ED00E03C83FF1F08B562B601F0B8F945F6BF52064B1A60064A136843F002030E
:400140001360054801F0C6F9002000F0C5FFFBE714E000E010E000E04421000008B501F02FF901F01DF8094A136843F00503136001221146002000F049FB054801F0AAF949
:40018000022000F0CFFA00F0EDFF08BD10E000E05821000000BFFDE7704700BF704700BF704700BF30B583B001F018F9294B9B681A68002A39D0274A127802A800F8042D61
:4001C0001B689847D8B99DF80410224B9A6819700021596002215970556993682BB33DB923E0996855F8240000F034FD013400E00024184B9B681A699442F2D315E0154B70
:4002000003225A709B68DD69DB6873B13DB90CE0D96855F8240000F01DFD013400E000240C4B9B689A699442F2D30B4C094B93F900200A49204601F05FFB204601F04AF95B
:40024000074801F047F94FF4FA7000F0BBFF03B030BD00BFCC80FF1FAC82FF1F682100006C21000000B583B000230193012000F071FD01A9032000F0CDFC019800F09CFCB7
:40028000019A0121014800F03BF8EFE77021000008B50C4B1A6812F5807F0DD202210A4800F016F8074A13680133136013F5807F02D90022034B1A6000220121034800F002
:4002C0001FF8E6E7E082FF1F7C2100008C210000F8B506460F46154600240DE006EBC4039A88B5FBF2F302FB13531BB956F83430002098470134A4B2BC42EFD3F8BD00BF80
:40030000F8B505460E461746002409E005EBC4035868384202D055F8343098470134A4B2B442F3D3F8BD00BF10B50446002001F05DF810B101F06CF82070002010BD00BF32
:400340000020704700207047FEE700BFF0B40022174611E050F82760F3B226F0FF0608E001EB420511F812406D78A5550132013BDBB2002BF4D10137192FEBD9F0BC7047A0
:4003800008B50A46002101F0AEFA08BDF8B5194B1B78DBB2184E3478E4B2184F3D78EDB203F00701164A11701B090132137044F00303337045F003033B700322114B1A7099
:4003C0008023114A13700832137010220F4B1A7020230F4A137005321370033213702D3213700A2000F004FF3D7034704422094B1A70F8BDCF010049F8460040F9460040B9
:400400006E5800400D51004001590040205B0040235B00407658004008B501F059FA08BD38B517222E4B1A8018232E4A13701925023215800232137008222B492B48FFF7FD
:40044000EBFF02222A4B1A7008224FF040231A70032103F500731970264B1B78DBB226490B70264B1A8041F25122023B1A8000240CE0234B1B7803F0010343EA440404F08D
:4004800003044FF4F07001F00BF9013D0DB1032CEFD115B90320FFF757FF1A4B4FF480721A8007221A70002217490A704820023108701A700222033B1A7004220A331A701C
:4004C000124A137843F003031370013A137843F003031370013A137843F08003137038BD80400040824000408C040048004100400043004008010049A146004022420040E8
:40050000254200400440004006400040A243004038B572B6354A137843F00403137000240CE0334D630019194A0011462A44084691882858FFF724FF0134E4B2062CF0D90F
:4005400000240BE02A49A3001819420088180622016BC06AFFF760FF0134E4B2002CF1D024494FF09040FFF7F1FE234A137843F0020313701032137843F0020313701F4C71
:40058000237843F040032370A2F58632513A137843F010031370082219491A48FFF73CFF0A2219491948FFF737FF082218491948FFF732FF082218491848FFF72DFF184AAD
:4005C000137843F008031370164D61232B70FFF727FF81232B700122134B1A70FFF7D6FE0E2221461148FFF717FF38BDE8460040402200006800004803500140A0430040D5
:40060000680400480251004070040048C05100407C040048125100408404004822510040224300400048004004000840B043004008B501F021F903680C2B00D1FEE7FEE7C7
:4006400008B5094B1A681044084BC31A802B02DC054B186005E001F00FF90C2303604FF0FF32104608BD00BFFC80FF1F588DFF1F08B5104E104D16E029686B68AC680022B3
:4006800004E051F8040B43F8040B0432A242F8D1E868002203E0002143F8041B04328242F9D11035013E002EE6D101F0EBF8FFF73BFDFEE701000000F024000008B5104AC1
:4006C000104B1A60104A136843F40073136000230AE0032B03D80D4A52F8231000E00C490C4A42F8231001332F2BF2D90A4B1A780A4B1A70074A0A4B1A60FFF709FF08BD4F
:400700000004FA050CED00E014ED00E000000000310600000080FF1FBC760040C080FF1F08ED00E038B5EFF3108572B603284ED82D4B53F82030002B4BD02B4A013B42F861
:4007400020302A4B53F82030032B07D10222274B43F820200022264B43F8202000F03EFC244B1B68002B36D1234B1C6800F014FCB0F1FF3F31D0214B53F82020204B1B68EF
:400780009A422CD9B4F1FF3F03D00221174A42F824101C4A52F820201343194A13600022124B43F8202000F0B3FB174B53F820304BB10024144B43F8204040F0004000F085
:4007C000F9FE20460CE000F0F5FE002008E0032006E0042004E0002002E0002000E0002085F3108838BD00BF3C81FF1FE081FF1F0483FF1F3C83FF1FCC81FF1FF023000074
:400800001C83FF1FD8230000E482FF1FF8B5EFF3108472B628BB00EB4005AB00184DEB5803EB4306B500174E75598D421BD34AB103EB43039E00134B1E44B3689A4214D384
:40084000954214D3A9B103010F4DEB589BB90301EE180127EF507260013900F087F800200AE0032008E0082006E0082004E0082002E0082000E0072084F31088F8BD00BF92
:4008800098230000AC2300004C87FF1F18B108B5C368984708BD704708B508B1406800E00020032816D80C4B53F8203093B10A4A013B42F82030094B53F82030032B07D135
:4008C0000222064B43F820200022054B43F8202000F084FB08BD00BF3C81FF1FE081FF1F0483FF1F18B1034640689B6801E00023184603281DD80F4A52F82020CAB10E4A34
:4009000052F82010032914D010B50C4C54F820201A4344F820200A4A52F82020134207D0012905D10222044B43F8202000F056FB10BD7047B8230000E081FF1F0483FF1FEF
:40094000F482FF1F80B108B50378012B06D013B1032B06D008BDFFF79FFF08BDFFF7C2FF08BDFFF793FF08BD704700BF30B400EB40029300214AD258214B03EBC2035C6837
:40098000B4F1FF3F04D11E4B03EBC20250602DE01C4B03EB04139B6899420AD2184D05EBC2025060174A02EB04125B1A93601DE01C46144B03EB04139A68891ADB68B3F19D
:4009C000FF3F05D00F4A02EB031292689142EFD2B3F1FF3F05D00B4A02EB031295686D1A9560084A02EB0414E0601C46054B03EB00108160C46030BC704700BF982300000B
:400A00000481FF1F4C87FF1F38B5394A02EBC0035C6852F83030013342F8303000EB40018A0034498A58934203D90022304B43F83020B4F1FF3F59D02F4B03EB04139B684A
:400A4000002B4ED1214600E019462B4B03EB0113DB68B3F1FF3F05D0274A02EB03129268002AF1D0244A02EB01114FF0FF32CA601F4A02EBC0004360B3F1FF3F07D01E4ADB
:400A800002EB03139A68013A9A6000E02C4604EB44029300194A13441B7A7BB904EB44029300164A13445A68154B53F8223003EB83039A0013481044FFF744FF0E4B03EBE4
:400AC0000413DD68596821B101392046FFF74EFF03E024010022084B1A51B5F1FF3FD5D138BD054A02EB0414013BA36038BD00BF0481FF1FAC2300004C87FF1F9823000058
:400B0000A82300008423000038B5EFF3108572B6002838D1FFF778FF204B1B68002B34D11F4B1C6800F038FAB0F1FF3F2FD01D4B53F820201C4B1B689A422AD9B4F1FF3F6E
:400B400003D00221194A42F82410194A52F820201343154A13600022144B43F8202000F0D7F9144B53F820304BB10024114B43F8204040F0004000F01DFD20460AE000F012
:400B800019FD002006E0032004E0002002E0002000E0002085F3108838BD00BF3C83FF1FCC81FF1FF02300001C83FF1FE081FF1FD8230000E482FF1FEFF3108372B6114A1E
:400BC0001168114A126882B9B1F1FF3F0FD00F4A52F821206AB110B40D4C54F8212022EA000044F82100002007E0022002E0022000E0012083F31088704783F3108810BCCE
:400C0000704700BFCC81FF1F3C83FF1FB82300000483FF1F03280FD80B4B53F820306BB10A4B53F82030032B0AD059B1084B53F820300B6000207047032070470120704773
:400C4000072070470E207047B8230000E081FF1F0483FF1F38B5EFF3108472B6032853D8324B53F82030002B50D0314B53F82030032B4DD02F4D55F820200A4345F8202039
:400C80002D4A52F82020114244D0012B44D10222274B43F8202000F0A1F9284B1B68002B3CD1274B1D6800F077F9B0F1FF3F37D0244B53F82020244B1B689A4232D9B5F10C
:400CC000FF3F03D002211A4A42F825101F4A52F8202013431C4A13600022154B43F8202000F016F91A4B53F820304BB10025184B43F8205040F0004000F05CFC284612E088
:400D000000F058FC00200EE003200CE001200AE0072008E0002006E0002004E0002002E0002000E0002084F3108838BDB8230000E081FF1F0483FF1FF482FF1F3C83FF1F98
:400D4000CC81FF1FF02300001C83FF1FD8230000E482FF1F38B5EFF3108472B6364B1D68364B1B68002B5DD1B5F1FF3F5CD0344B53F82530002B59D0324B53F825300342E6
:400D800056D1314B43F825000122304B43F825202F4B53F825002F490B6823EA00030B602D4B43F825202D4B53F82520224B1A6000F0F2F8B0F1FF3F06D0294B53F820204D
:400DC000244B1B689A420DD81B4B1868B0F1FF3F03D000221D4B43F8202040F0004000F0E9FB1AE00021194A42F82010184A52F820201343174A136000F08AF8164B53F843
:400E0000203043B10022144B43F8202040F0004000F0D0FB01E000F0CDFB00200A4B43F8250006E0022004E0022002E0012000E0002084F3108838BDCC81FF1F3C83FF1F7C
:400E4000B82300000483FF1FF482FF1FE081FF1FD82300001C83FF1FE482FF1FD081FF1FF023000008B500F053F8084B53F8203043B10022054B43F8202040F00040044B9B
:400E8000186008BD024B186008BD00BFE482FF1F4083FF1F10B500F07FF8124B1B68B0F1FF3F1AD0104A52F82010104A1268914213D9B3F1FF3F03D002240D4941F823403E
:400EC00000210B4B43F820100A4B53F820301A43064B1A60FFF7C6FF10BD43F00043064A136010BDCC81FF1FF02300001C83FF1FE081FF1FD82300004083FF1F034B1B6803
:400F000013B10022014B1A60704700BF3083FF1FF0B4184B19880B0A174AD356B3F1FF3F01D1535601E008335BB2144D55F82320134850F82200134E56F8224045F823408A
:400F4000114D2F6846F822702A60B4F1FF3F09D10E4A42F82340012202FA03F321EA0301044B19800A4B19680A4A42F820101860F0BC70471883FF1F782200008C81FF1F77
:400F80002C87FF1F1C81FF1F1483FF1F4C81FF1FCC81FF1FD081FF1F0C4B1A88130A0C49CB56B3F1FF3F01D18B5601E008335BB2B3F1FF3F06D0074A52F82320064B53F8AF
:400FC000220070474FF0FF30704700BF1883FF1F782200008C81FF1F2C87FF1F30B4144B53F82020134C2368134951F823502560124C44F823004FF0FF3441F8234010496C
:4010000051F82210A1420AD10E4951F820400E480188214301800D4941F8223002E0064840F82130064941F8223030BC704700BF2C81FF1F1483FF1F1C81FF1F2C87FF1FD1
:401040004C81FF1FF02300001883FF1F8C81FF1F10B150F8210070474FF0FF30704700BF0122014B1A60FEE73883FF1F70B50546124B53F8306000241CE0104B03EBC50349
:4010800021465868FFF7E4FF0D4A52F82030013B42F820300B4B53F82030032B07D10222084B43F820200022074B43F82020FFF795FF0134B442E0D370BD00BF78230000B2
:4010C0003C81FF1FE081FF1F0483FF1F18B908B5FFF7CCFF08BD7047194B1A4ADA621A4A9A631A4ADA63EFF3108272B6184B1B6813BB10B5044600F053F8164B1C60012286
:40110000134B1A602046FFF7E1FFFFF745FFB0F1FF3F0ED0104B53F82030104A11680B43136000220E4B43F82020FFF7F1FE00F041FA62B6FFF794FF82F310880720704788
:401140000080FF1F7515000039150000910000003883FF1F5C87FF1FD82300001C83FF1FE081FF1F08B5EFF3108272B6094B1968094B1B6833B94FF0FF30084B43F8210049
:40118000002000E0022010B9084600F06CFA82F3108808BDCC81FF1F3C83FF1F0C81FF1F10B5EFF3108472B600F0B4F9034A136843F07F43136084F3108810BD20ED00E0E2
:4011C00001BE704710B5044605E0084B186800F067FAA4F50044B4F5004FF6D8034B586800FB04F000F05CFA10BD00BF1882FF1F08B5034B1B7A00FB03F000F051FA08BDA9
:401200001882FF1F70B504460E46074B1D681F2802D90020FFF7D4FF04F01F04103455F8240045F8246070BD08ED00E038B504460D46072902D90020FFF7C2FF1F2C02D930
:401240000020FFF7BDFF04F01F0000F1604000F564406D01EDB2057038BD00BF08B50A280FD00C2802D0082806D102E04FF4805209E04FF4807206E00020FFF7A1FF00227B
:4012800001E04FF480620021084B198042F2107303FB02F313F5806301D503F2FF73DB12034A13600022034B1A8008BD4E8DFF1F488DFF1F4C8DFF1F10B500F0F9F90446F9
:4012C0001E4A137843F0010313701032137843F0010313701A3A137843F0020313701032137843F00203137002F5AA521232137843F0030313700422114B1A70013B1A7840
:4013000042F040021A701A7802F0FC021A70C822053B1A700222A3F597530C3B1A70094A137843F0080313700A20FFF761FF0122054B1A60204600F0BFF910BDAB43004063
:4013400006590040275B004080E200E010B504460A280DD00C2802D0082804D101E0C42207E0442205E00020FFF72AFFC42200E08422034B1A702046FFF770FF10BD00BFCE
:401380000259004008B5102000F050F807210020FFF74CFF07490020FFF734FF064A137843F0060313700820FFF7D0FF0022034B1A8008BD2914000001590040508DFF1F23
:4013C00008B5054B1B7823B9FFF7DCFF0122024B1A70FFF771FF08BD2483FF1F024A137843F00103137070470059004010B5074B1B7813F0010401D10028F8D024B101206B
:40140000FFF7F6FE014B1B78204610BD01590040034B1B78034A108800B2181A40B27047A05B00404C8DFF1F704700BF034B1A7800F0F80010431870704700BF064100407B
:401440007222084B1A70202203F201131A7006225F3B1A70472210331A70002250331A70704700BF8964004010B500F021F904460A4A137843F02003137002F2011213786F
:4014800043F0100313700132137843F01003137000F032F8204600F00FF910BD9964004008B5054B1B7823B9FFF7CAFF0122024B1A70FFF7D9FF08BD2583FF1F034B1B78EB
:4014C00013F0040FFAD1024B187070476B6500404864004038B5074B1B782BB938BDFFF7EDFF0134A4B201E005460024285D0028F5D138BD2583FF1F054A137843F00203DB
:4015000013701032137843F002031370704700BFA243004018484FF47F0102680A43026016486FF07F4102680A400260704714484FF080510160704772B611484FF00061DA
:401540000160FFF7A7FC0F48006800F0D5F858B10C4800684FF080730B4A0C490FB40FB46FF00600004700BF6FF0060062B6004762B600DF08B0704720ED00E01CED00E063
:4015800004ED00E04083FF1FB515000071150000EFF30880054908600548006880F3088870470248006880F3088870472882FF1F0882FF1F411C8900154A11440968154A54
:4015C000136899421AD0F0B444464D4656465F46F0B400B5104C9B002344EFF308851D60116089002144096881F3088802BC8E46F0BCA046A946B246BB46F0BC002806DB71
:4016000000B500F06DF802BC8E46FFF7D3BF7047202400002083FF1F0C82FF1FF0B444464D4656465F46F0B400B5EFF3038308B48000174901440968164A0244EFF30883F6
:40164000136088471448804704BC4FF08070024382F3038801BC8646F0BCA046A946B246BB46F0BC704780000A4901440A6882F3088804BC4FF08070024382F3038808BCE4
:401680009E46F0BCA046A946B246BB46F0BC7047002400003C87FF1FC1160000000000000230800803D000BF01380046FCD17047EFF3108072B6704780F31088704700BF6C
:4016C00008B572B6014B1868FFF7CDFFCC81FF1F08B5024B1868FFF7A1FF08BDCC81FF1F08B562B6FFF7F4FF72B600F041F8014B186808BD4083FF1F00280BDA20F00040DE
:401700000130054B53F82000044B1B68181A18BF0120704701207047202400002083FF1F054B53F82020054B53F820309A4201D101207047002070473C81FF1FC823000044
:4017400008B5FFF7E5FB084B53F8203043B10022054B43F8202040F00040044B186008BD024B186008BD00BFE482FF1F4083FF1F38B5364B1C680022354B1A60354A52F886
:401780002430013342F82430334B53F824502046FFF7C6FF012801D0A54204D103222F4B43F8242003E002222C4B43F824202C4B53F824102B4A136823EA010313602A4B05
:4017C00053F82440214B1C60B5F1FF3F0FD0234B53F82530032B07D10222204B43F825200022224B43F825202846FFF7F7FBFFF7D3FBB0F1FF3F0BD1B4F1FF3F03D00022B0
:40180000164B43F8242044F00044194B1C6038BD184B53F82020134B1B689A4208D800220E4B43F8242044F00044114B1C6038BD00210A4A42F82010094A52F8202013439F
:40184000084A1360FFF77CFF38BD00BFCC81FF1F3083FF1F3C81FF1F0C81FF1FE081FF1FD82300001C83FF1FD081FF1F0483FF1F4083FF1FF0230000014B1868704700BF3B
:401880008C82FF1F0E4B70B51E460E4C0025E41AA410A54204D056F8253098470135F8E700F014FE084B094C1E46E41AA4100025A54204D056F8253098470135F8E770BD33
:4018C000D8240000D8240000D8240000E024000010B5431E0A44914204D011F8014B03F8014FF8E710BD03460244934202D003F8011BFAE7704700000EB400B54FF4027177
:401900009CB0ADF814106FF00041049107914FF6FF711DAB02900690084853F8042BADF81610006802A9019300F064F8029B00221A701CB05DF804EB03B070478C82FF1FA9
:401940002DE9F0478E6882469E420C46914698463ED88A8912F4906F3AD02568096902236F1A656905EB450595FBF3F57B1C43449D4238BF1D4653050FD5294600F040FBE3
:40198000064698B13A462169FFF7A2FFA38923F4906343F08003A38113E02A4600F08EFB064670B92169504600F0DEFA0C23CAF80030A3894FF0FF3043F04003A381BDE8AE
:4019C000F08726613E44266046466561ED1BA560464528BF464649463246206800F0A8FAA36800209B1BA36023681E442660BDE8F08700002DE9F04F9DB003938B898046DE
:401A00001C060D4616460DD50B695BB9402100F0F7FA2860286118B90C23C8F80030CDE040236B610023099320238DF82930DFF89CB130238DF82A3037463C4614F8013BCF
:401A40001BB9B7EB060910D003E0252BF9D02746F3E74B46324629464046FFF771FF013000F0A780099B4B4409933B78002B00F0A08000234FF0FF32049307930592069361
:401A80008DF853301A930126052221784E4800F041FA671C049B38B14B4A3C46801A06FA00F018430490EFE7D90644BF20228DF853201A0744BF2B228DF8532022782A2AE5
:401AC00003D0079A00210A200BE0039A111D12680391002A10DA524243F00200079204900BE027463B780134303B092B03D800FB02320121F5E701B107923B782E2B1ED12C
:401B00007B782A2B0AD1039B02371A1D1B680392002BB8BF4FF0FF33059310E0002319460593781C0A2407463A780130303A092A03D804FB01210123F5E703B105910322AD
:401B40003978224800F0E6F940B14023CBEB000003FA00F0049B013718430490397806221B487E1C8DF8281000F0D4F988B1194B33B9039B073323F007030833039314E02B
:401B800003AB00932A46144B04A94046AFF3008007E003AB00932A460F4B04A9404600F093F8B0F1FF3F824603D0099B5344099342E7AB895B0601D4099801E04FF0FF304C
:401BC0001DB0BDE8F08F00BF962400009C240000A024000000000000411900002DE9F04791461F460A698B6806469342B8BF1346C9F8003091F843200C46DDF8208012B156
:401C00000133C9F800302368990642BFD9F800300233C9F80030256815F0060510D104F1190A07E00123524639463046C04701301AD00135E368D9F800209B1A9D42F1DB0B
:401C400094F843302268003318BF012392060FD5E118302081F843005A1C94F845102244023382F8431003E04FF0FF30BDE8F08704F1430239463046C0470130F4D022684B
:401C8000D9F80050E36802F00602042A08BF5D1B2269A3680CBF25EAE57500259342C4BF9B1AED184FF000091A344D4509D00123224639463046C0470130D5D009F10109ED
:401CC000F3E70020BDE8F0872DE9F04317460A7E85B06E2A984606460C460C9B01F1430E00F0AE8011D8632A22D009D8002A00F0BB80582A40F0CA8081F84520834955E0D6
:401D0000642A1ED0692A1CD0C0E0732A00F0B08009D86F2A2ED0702A40F0B8800A6842F020020A603EE0752A24D0782A3AD0ADE01A6801F14205111D1960136884F84230EC
:401D4000A8E021681A6811F0800F02D0111D196008E011F0400F02F10401196002D0B2F9003000E01368002B3CDA2D225B4284F8432037E021681A6811F0800F02D0111D58
:401D8000196007E011F0400F02F10401196001D0138800E01368227E5C496F2A14BF0A2208221BE078225A4984F845202268186812F0800F00F104051D6003D1550601D504
:401DC000038800E00368D00744BF42F0200222601BB9226822F0200222601022002084F8430001E049490A226568002DA56008DB206820F0040020602BB9002D7DD1754681
:401E00000CE0002B79D07546B3FBF2F002FB1033CB5C05F8013D03460028F5D1082A0BD12368DA0708D5236962689A42DEBF302305F8013C05F1FF35C5EB0E0323612EE0EE
:401E400008681A6810F0800F496903D0101D1860136808E010F0400F02F104001860136801D0198000E0196000232361754616E01A68111D1960156800216268284600F011
:401E800049F808B1401B6060636804E004F1420584F8422001232361002384F84330CDF800803B4603AA21463046FFF797FE013002D14FF0FF3026E023692A463946304646
:401EC000C0470130F5D023689B0710D5002504F1190907E001234A4639463046C0470130E7D00135E368039A9B1A9D42F2DBE068039B9842B8BF184605E00B7804F1420560
:401F000084F842308AE705B0BDE8F083A7240000B824000010B5C9B202449042034605D01C7801308C42F8D1184610BD002010BD884210B501EB020301D8421E0BE0984266
:401F4000FBD28118D21AD34204D013F8014D01F8014DF8E710BD994204D011F8014B02F8014FF8E710BD000038B50546002944D051F8043C0C1F002BB8BFE41800F0D4F85D
:401F80001E4A1368114613B96360146030E0A3420DD92268A018834201BF18685B681218226063600C6023E0A24203D813465A68002AF9D118681918A1420BD12168014415
:401FC00058188242196013D110685268014419605A600DE002D90C232B6009E021686018824201BF106852680918216062605C602846BDE8384000F098B838BD2C83FF1FD7
:4020000070B5CD1C25F0030508350C2D38BF0C25002D064601DBA94202D90C23336046E000F082F8234B1C681A462146A1B10B685B1B0ED40B2B03D90B60CC18CD501EE018
:402040008C420BBF63684B681360636018BF0C4615E00C464968E9E7174C23681BB9304600F052F820602946304600F04DF8431C18D0C41C24F00304A0420DD1256030461A
:4020800000F053F804F10B00231D20F00700C31A0ED05A42E25070BD211A304600F034F80130EBD10C233360304600F03EF8002070BD00BF2C83FF1F2883FF1FF8B5074624
:4020C00015460E4621B91146BDE8F840FFF798BF1AB9FFF749FF2846F8BD00F027F885420ED929463846FFF78BFF044650B131462A46FFF7EDFB31463846FFF735FF01E068
:402100003046F8BD2046F8BD38B5064C0023054608462360FEF794FA431C02D1236803B12B6038BD548DFF1F7047704751F8040C0028BEBF091851F8043CC0180438704787
:4021400000000000496E206D61696E2066756E6374696F6E00000000496E20696E6974207461736B00000000256400000D0A00009D0100000100000001000000A501000019
:402180000A000000A101000064000000990100000200000001000200000000004103000000000000000000000000000000000000000000000000000000000000000000002C
:4021C0000000000045030000000000000000000000000000000000000000000000000000000000000000000000000000000000000200000000000000010000001022000062
:40220000000000000000000000000000000000000200000029030000000000000100000000000000010000003C22000000000000000000000000000000000000030000000D
:40224000305100404000F0510040100000000140001000140140000800400140000A004C014000020050014020000000605200406004004806000000FF00010102020202A6
:4022800003030303030303030404040404040404040404040404040405050505050505050505050505050505050505050505050505050505050505050606060606060606F6
:4022C0000606060606060606060606060606060606060606060606060606060606060606060606060606060606060606060606060606060606060606070707070707070756
:4023000007070707070707070707070707070707070707070707070707070707070707070707070707070707070707070707070707070707070707070707070707070707DD
:402340000707070707070707070707070707070707070707070707070707070707070707070707070707070707070707070707070707070707070707010000008023000031
:402380000000000000000000020000000000000000000000FFFFFFFF00000000000000000000000000000000000000001027000001000000000000000000000000000000E7
:4023C0000100000001000000010000000100000001000000010000008000000001000000040000000400000001000000020000000100000001000000040000000400000041
:402400005D010000950100009102000065020000D1160000D1160000D1160000D11600000000000000000000000000000100000002000000616C726D5F316D7300000000F3
:4024400065765F6A6F79737469636B5F6F6E44617461000065765F73706565645F6F6E446174610074736B5F696E69740000000074736B5F6261636B67726F756E640000C5
:4024800074736B5F696F000074736B5F636F6E74726F6C004300232D302B2000686C4C00656667454647003031323334353637383941424344454600303132333435363771
:4024C000383961626364656600000000F8B500BFF8BC08BC9E4670474D000000BD060000F8B500BFF8BC08BC9E4670472900000000250000C880FF1FC8010000C80A0000B9
:40250000000000000000000000000000142200000000000000000000E82100000000000000000000C0210000000000000000000098210000588DFF1F342400000000000067
:40254000FFFFFFFFFFFFFFFFFFFFFFFFFFFFFFFFFFFFFFFF010000000200000003000000FFFFFFFF0000000000000000020000000200000001000000010000000100000066
:4025800001000000FFFFFFFFFFFFFFFFFFFFFFFFFFFFFFFFFFFFFFFFFFFFFFFFFFFFFFFFFFFFFFFFFFFFFFFFFFFFFFFFFFFFFFFFFFFFFFFFFFFFFFFFFFFFFFFFFFFFFFFF56
:4025C000FFFFFFFFFFFFFFFFFFFFFFFFFFFFFFFFFFFFFFFFFFFFFFFFFFFFFFFFFFFFFFFFFFFFFFFFFFFFFFFFFFFFFFFFFFFFFFFFFFFFFFFFFFFFFFFFFFFFFFFFFFFFFFFF1B
:40260000FFFFFFFFFFFFFFFFFFFFFFFFFFFFFFFFFFFFFFFFFFFFFFFF030000000300000003000000030000004024000054240000642400007024000080240000882400005E
:40264000488DFF1F000000000487FF1F208BFF1F0000E02EC05D00001800000000366E0100000000000000000000000000000000000000000000000000000000000000000D
:402680000000000094240000000000000000000000000000000000000000000000000000000000000000000000000000000000000000000000000000000000000000000062
:4026C000000000002C82FF1F00000000000000000000000000000000000000000000000000000000000000000000000000000000000000000000000000000000000000000E
:402700000000000000000000000000000000000000000000000000000000000000000000000000000000000000000000000000000000000000000000000000000000000099
:402740000000000000000000000000000000000000000000000000000000000000000000000000000000000000000000000000000000000000000000000000000000000059
:402780000000000000000000000000000000000000000000000000000000000000000000000000000000000000000000000000000000000000000000000000000000000019
:4027C00000000000000000000000000000000000000000000000000000000000000000000000000000000000000000000000000000000000000000000000000000000000D9
:020000040003F7
:0200000480007A
:4000000001520040015B00400164004003650040010701405008014034090140020B014001150140581801404A1901405A1A01404E1B0140034001400241014002420140FE
:40004000034301400245014004460140014701400148014002490140024C0140084D01400450014001510140111027218972890D8A388B0FEE04030805AC0601074309316B
:400080000B4E138C153117C619301B401F533201330F35F03B2840244106450C46B047E0482949FF4AFF4BFF4EF04F44500C580459045A045C105D015F0166C06A406B0202
:4000C0008110840785188618881989088A068F049419953C960697029A049B239C1F9D049F40A010A13FA408A818A91CAB21AD27AF18B001B140B202B31FB41CB738B8083B
:40010000BAA0BB08BE01D602D713D804D904DB04DC11DD10DF01000401200504088009280A0110A0132019211A011B081F0420402108228025142714288029202B02312849
:40014000338034403621370438683A023D0A3F10444045104E204F1454025620590169146B0170B4720273209508C026C207C40ECA0DCCFECEEFD0A0D220D601EE04850440
:40018000E008EE080110051C0702090C0B110E3011091310140515101618170C1A041C021E0C1F03221024052628283029142A0D2D20311F323834043520360338803A0827
:4001C0003E103F10580459045C115F0180058504860F883C8A038C0F8E308F01900A93029430960F9706980F9C3FA020A410A830B101B302B43CB603B704BA20C040C10591
:40020000C5D1C602C807C9FFCAFFCBFFCDA0CF04D018D280D405D804D904DA04DB04DC01DF01E040E2C0E440E540E6C0E8C0EAC0ECC0EEC0000801200382054008A10908A6
:400240000C400E100F0610A013201501171418041A011D401E121F1020802105224227482C022D802E2031043202360137443B483D0B3E10410149064B80518053405808D2
:4002800059025A805E105F106402658073408C048F029114930C940495089710988099209A209B359C409D04A0A2A10CA280A308A521A601A782C08FC2EFC47ECA30CCD3E8
:4002C000CEEAD001D208D60B01010201030A04040513061809130A020E2010101110120414081502160417091A021D201E202201241C2704281C30203120321C330334028C
:4003000035103601370C3E513F41402641044205440145CE480349FF4AFF4BFF4C624DA04EF04F41500C5418580459045A045B045C115D115F016640670269106A306B1000
:400340006D106E106F128301850289039503B103B902BF01C001C740C9FFCA07CBFFCC40CD20CEF0CF05D008D401D904DA04DB04DD11DF01E040E1A8E240E3200080010881
:4003800002800308080109800A200B0810801114195E20092128220127802820290431083341358036803704380239143D083E103F0240854780488449804B084F0255013B
:4003C0005A015C025D205E805F08615065206704800881028401850886018A408B108C018E108F80900491149211932498829B4D9C29A040A184A280A308A404A521A781DC
:40040000C00FC20FC40ECA02CC4BCEE7D01DD20CD6F1D80CE402EE0833203680CC30A680A720A680A720A680AB20EE206208D8021B048608A608C608AB04A680AE80EE1014
:400440001F80C6011280740484048E80AF80C408DE04E20200030C0310031C03000F000080800000400000000000000000001300800040808000800000000000000B0B00B9
:400480000000000000101000100000000E001801120018010000000000000000000000000000000000000000000000000000000000000000000000000000000000000000BA
:4004C00000000000000000000000000000000000000000000000000000000000000000000000000000000000000000000000000000000000000000000000000000000000FC
:4005000000000000000000000000000000000000000000000000000000000000000000000000000000000000000000000000000000000000000000000000000000000000BB
:40054000000000000000000000000000000000000000000000000000000000000000000000000000000000000000000000000000000000000000000000000000000000007B
:40058000000000000000000000000000000000000000000000000000000000000000000000000000000000000000000000000000000000000000000000000000000000003B
:0200000490006A
:0400000000004005B7
:0200000490105A
:04000000BC90ACAF55
:0200000490303A
:02000000C784B3
:0200000490402A
:4000000000000000000000000000000000000000000000000000000000000000000000000000000000000000000000000000000000000000000000000000000000000000C0
:400040000000000000000000000000000000000000000000000000000000000000000000000000000000000000000000000000000000000000000000000000000000000080
:400080000000000000000000000000000000000000000000000000000000000000000000000000000000000000000000000000000000000000000000000000000000000040
:4000C0000000000000000000000000000000000000000000000000000000000000000000000000000000000000000000000000000000000000000000000000000000000000
:0200000490501A
:0C00000000012E16106900012E24D7ED1F
:00000001FF